{
  "contractName": "ERC20",
  "abi": [
    {
      "inputs": [
        {
          "internalType": "string",
          "name": "name",
          "type": "string"
        },
        {
          "internalType": "string",
          "name": "ticker",
          "type": "string"
        },
        {
          "internalType": "uint256",
          "name": "totalSupply",
          "type": "uint256"
        },
        {
          "internalType": "uint8",
          "name": "decimals",
          "type": "uint8"
        }
      ],
      "payable": false,
      "stateMutability": "nonpayable",
      "type": "constructor"
    },
    {
      "anonymous": false,
      "inputs": [
        {
          "indexed": true,
          "internalType": "address",
          "name": "owner",
          "type": "address"
        },
        {
          "indexed": true,
          "internalType": "address",
          "name": "spender",
          "type": "address"
        },
        {
          "indexed": true,
          "internalType": "uint256",
          "name": "value",
          "type": "uint256"
        }
      ],
      "name": "Approval",
      "type": "event"
    },
    {
      "anonymous": false,
      "inputs": [
        {
          "indexed": true,
          "internalType": "address",
          "name": "previousOwner",
          "type": "address"
        },
        {
          "indexed": true,
          "internalType": "address",
          "name": "newOwner",
          "type": "address"
        }
      ],
      "name": "OwnershipTransferred",
      "type": "event"
    },
    {
      "anonymous": false,
      "inputs": [
        {
          "indexed": true,
          "internalType": "address",
          "name": "from",
          "type": "address"
        },
        {
          "indexed": true,
          "internalType": "address",
          "name": "to",
          "type": "address"
        },
        {
          "indexed": true,
          "internalType": "uint256",
          "name": "value",
          "type": "uint256"
        }
      ],
      "name": "Transfer",
      "type": "event"
    },
    {
      "constant": true,
      "inputs": [
        {
          "internalType": "address",
          "name": "_address",
          "type": "address"
        }
      ],
      "name": "balanceOf",
      "outputs": [
        {
          "internalType": "uint256",
          "name": "",
          "type": "uint256"
        }
      ],
      "payable": false,
      "stateMutability": "view",
      "type": "function"
    },
    {
      "constant": true,
      "inputs": [],
      "name": "decimals",
      "outputs": [
        {
          "internalType": "uint8",
          "name": "",
          "type": "uint8"
        }
      ],
      "payable": false,
      "stateMutability": "view",
      "type": "function"
    },
    {
      "constant": true,
      "inputs": [],
      "name": "isOwner",
      "outputs": [
        {
          "internalType": "bool",
          "name": "",
          "type": "bool"
        }
      ],
      "payable": false,
      "stateMutability": "view",
      "type": "function"
    },
    {
      "constant": true,
      "inputs": [],
      "name": "name",
      "outputs": [
        {
          "internalType": "string",
          "name": "",
          "type": "string"
        }
      ],
      "payable": false,
      "stateMutability": "view",
      "type": "function"
    },
    {
      "constant": true,
      "inputs": [],
      "name": "owner",
      "outputs": [
        {
          "internalType": "address",
          "name": "",
          "type": "address"
        }
      ],
      "payable": false,
      "stateMutability": "view",
      "type": "function"
    },
    {
      "constant": false,
      "inputs": [],
      "name": "renounceOwnership",
      "outputs": [],
      "payable": false,
      "stateMutability": "nonpayable",
      "type": "function"
    },
    {
      "constant": true,
      "inputs": [],
      "name": "ticker",
      "outputs": [
        {
          "internalType": "string",
          "name": "",
          "type": "string"
        }
      ],
      "payable": false,
      "stateMutability": "view",
      "type": "function"
    },
    {
      "constant": true,
      "inputs": [],
      "name": "totalSupply",
      "outputs": [
        {
          "internalType": "uint256",
          "name": "",
          "type": "uint256"
        }
      ],
      "payable": false,
      "stateMutability": "view",
      "type": "function"
    },
    {
      "constant": false,
      "inputs": [
        {
          "internalType": "address",
          "name": "newOwner",
          "type": "address"
        }
      ],
      "name": "transferOwnership",
      "outputs": [],
      "payable": false,
      "stateMutability": "nonpayable",
      "type": "function"
    },
    {
      "constant": false,
      "inputs": [
        {
          "internalType": "address",
          "name": "_to",
          "type": "address"
        },
        {
          "internalType": "uint256",
          "name": "_value",
          "type": "uint256"
        }
      ],
      "name": "transfer",
      "outputs": [
        {
          "internalType": "bool",
          "name": "",
          "type": "bool"
        }
      ],
      "payable": false,
      "stateMutability": "nonpayable",
      "type": "function"
    },
    {
      "constant": false,
      "inputs": [
        {
          "internalType": "address",
          "name": "_from",
          "type": "address"
        },
        {
          "internalType": "address",
          "name": "_to",
          "type": "address"
        },
        {
          "internalType": "uint256",
          "name": "_value",
          "type": "uint256"
        }
      ],
      "name": "transferFrom",
      "outputs": [
        {
          "internalType": "bool",
          "name": "",
          "type": "bool"
        }
      ],
      "payable": false,
      "stateMutability": "nonpayable",
      "type": "function"
    },
    {
      "constant": false,
      "inputs": [
        {
          "internalType": "address",
          "name": "spender",
          "type": "address"
        },
        {
          "internalType": "uint256",
          "name": "value",
          "type": "uint256"
        }
      ],
      "name": "approve",
      "outputs": [
        {
          "internalType": "bool",
          "name": "",
          "type": "bool"
        }
      ],
      "payable": false,
      "stateMutability": "nonpayable",
      "type": "function"
    },
    {
      "constant": true,
      "inputs": [
        {
          "internalType": "address",
          "name": "sender",
          "type": "address"
        },
        {
          "internalType": "address",
          "name": "spender",
          "type": "address"
        }
      ],
      "name": "allowance",
      "outputs": [
        {
          "internalType": "uint256",
          "name": "",
          "type": "uint256"
        }
      ],
      "payable": false,
      "stateMutability": "view",
      "type": "function"
    }
  ],
  "bytecode": "0x60806040523480156200001157600080fd5b5060405162000e6e38038062000e6e833981810160405260808110156200003757600080fd5b81019080805160405193929190846401000000008211156200005857600080fd5b9083019060208201858111156200006e57600080fd5b82516401000000008111828201881017156200008957600080fd5b82525081516020918201929091019080838360005b83811015620000b85781810151838201526020016200009e565b50505050905090810190601f168015620000e65780820380516001836020036101000a031916815260200191505b50604052602001805160405193929190846401000000008211156200010a57600080fd5b9083019060208201858111156200012057600080fd5b82516401000000008111828201881017156200013b57600080fd5b82525081516020918201929091019080838360005b838110156200016a57818101518382015260200162000150565b50505050905090810190601f168015620001985780820380516001836020036101000a031916815260200191505b5060408181526020830151920151600080546001600160a01b031916331780825593955090935086928692869286926001600160a01b0316917f8be0079c531659141344cd1fd0a4f28419497f9722a3daafe3b4186f6b6457e0908290a383516200020b9060029060208701906200040a565b508251620002219060039060208601906200040a565b5060048290556005805460ff191660ff8316179055620002566200024462000264565b6004546001600160e01b036200027416565b5050505050505050620004ac565b6000546001600160a01b03165b90565b620002876001600160e01b03620003ab16565b620002c5576040805162461bcd60e51b81526020600482015260096024820152683737ba1037bbb732b960b91b604482015290519081900360640190fd5b6001600160a01b0382166200030f576040805162461bcd60e51b815260206004820152600b60248201526a061646472657373203078360ac1b604482015290519081900360640190fd5b6200032b81600454620003bc60201b620009301790919060201c565b6004556001600160a01b0382166000908152600160209081526040909120546200036091839062000930620003bc821b17901c565b6001600160a01b0383166000818152600160205260408082209390935591518392907fddf252ad1be2c89b69c2b068fc378daa952ba7f163c4a11628f55a4df523b3ef908290a45050565b6000546001600160a01b0316331490565b60008282018381101562000403576040805162461bcd60e51b8152602060048201526009602482015268195c9c9bdc8818591960ba1b604482015290519081900360640190fd5b9392505050565b828054600181600116156101000203166002900490600052602060002090601f016020900481019282601f106200044d57805160ff19168380011785556200047d565b828001600101855582156200047d579182015b828111156200047d57825182559160200191906001019062000460565b506200048b9291506200048f565b5090565b6200027191905b808211156200048b576000815560010162000496565b6109b280620004bc6000396000f3fe608060405234801561001057600080fd5b50600436106100cf5760003560e01c8063715018a61161008c5780638f32d59b116100665780638f32d59b1461025b578063a9059cbb14610263578063dd62ed3e1461028f578063f2fde38b146102bd576100cf565b8063715018a6146102255780638ba47bdd1461022f5780638da5cb5b14610237576100cf565b806306fdde03146100d4578063095ea7b31461015157806318160ddd1461019157806323b872dd146101ab578063313ce567146101e157806370a08231146101ff575b600080fd5b6100dc6102e3565b6040805160208082528351818301528351919283929083019185019080838360005b838110156101165781810151838201526020016100fe565b50505050905090810190601f1680156101435780820380516001836020036101000a031916815260200191505b509250505060405180910390f35b61017d6004803603604081101561016757600080fd5b506001600160a01b038135169060200135610376565b604080519115158252519081900360200190f35b61019961038c565b60408051918252519081900360200190f35b61017d600480360360608110156101c157600080fd5b506001600160a01b03813581169160208101359091169060400135610392565b6101e96103a9565b6040805160ff9092168252519081900360200190f35b6101996004803603602081101561021557600080fd5b50356001600160a01b03166103b2565b61022d6103cd565b005b6100dc61045c565b61023f6104bd565b604080516001600160a01b039092168252519081900360200190f35b61017d6104cc565b61017d6004803603604081101561027957600080fd5b506001600160a01b0381351690602001356104dd565b610199600480360360408110156102a557600080fd5b506001600160a01b03813581169160200135166104ea565b61022d600480360360208110156102d357600080fd5b50356001600160a01b0316610515565b60028054604080516020601f600019610100600187161502019094168590049384018190048102820181019092528281526060939092909183018282801561036c5780601f106103415761010080835404028352916020019161036c565b820191906000526020600020905b81548152906001019060200180831161034f57829003601f168201915b5050505050905090565b6000610383338484610566565b50600192915050565b60045490565b600061039f848484610651565b5060019392505050565b60055460ff1690565b6001600160a01b031660009081526001602052604090205490565b6103d56104cc565b610412576040805162461bcd60e51b81526020600482015260096024820152683737ba1037bbb732b960b91b604482015290519081900360640190fd5b600080546040516001600160a01b03909116907f8be0079c531659141344cd1fd0a4f28419497f9722a3daafe3b4186f6b6457e0908390a3600080546001600160a01b0319169055565b60038054604080516020601f600260001961010060018816150201909516949094049384018190048102820181019092528281526060939092909183018282801561036c5780601f106103415761010080835404028352916020019161036c565b6000546001600160a01b031690565b6000546001600160a01b0316331490565b6000610383338484610651565b6001600160a01b03918216600090815260066020908152604080832093909416825291909152205490565b61051d6104cc565b61055a576040805162461bcd60e51b81526020600482015260096024820152683737ba1037bbb732b960b91b604482015290519081900360640190fd5b610563816107bf565b50565b6001600160a01b0382166105af576040805162461bcd60e51b815260206004820152600b60248201526a061646472657373203078360ac1b604482015290519081900360640190fd5b6001600160a01b0383166105f8576040805162461bcd60e51b815260206004820152600b60248201526a061646472657373203078360ac1b604482015290519081900360640190fd5b6001600160a01b0380841660008181526006602090815260408083209487168084529490915280822085905551849392917f8c5be1e5ebec7d5bd14f71427d1e84f3dd0314c0f7b2291e5b200ac8c7c3b92591a4505050565b6001600160a01b03821661069a576040805162461bcd60e51b815260206004820152600b60248201526a061646472657373203078360ac1b604482015290519081900360640190fd5b6106a3836103b2565b8111156106e9576040805162461bcd60e51b815260206004820152600f60248201526e1b9bdd08195b9bdd59da08199d5b99608a1b604482015290519081900360640190fd5b6001600160a01b0383166000908152600660209081526040808320338452909152902054811115610758576040805162461bcd60e51b81526020600482015260146024820152731d1c985b9cd9995c881b9bdd08185b1b1bddd95960621b604482015290519081900360640190fd5b610763838383610861565b506001600160a01b03808416600081815260066020908152604080832033845290915280822080548690039055518493861692917fddf252ad1be2c89b69c2b068fc378daa952ba7f163c4a11628f55a4df523b3ef91a4505050565b6001600160a01b038116610806576040805162461bcd60e51b81526020600482015260096024820152683737ba1037bbb732b960b91b604482015290519081900360640190fd5b600080546040516001600160a01b03808516939216917f8be0079c531659141344cd1fd0a4f28419497f9722a3daafe3b4186f6b6457e091a3600080546001600160a01b0319166001600160a01b0392909216919091179055565b6001600160a01b03831660009081526001602052604081205461088a908363ffffffff6108e716565b6001600160a01b0380861660009081526001602052604080822093909355908516815220546108bf908363ffffffff61093016565b6001600160a01b03841660009081526001602081905260409091209190915590509392505050565b60008282111561092a576040805162461bcd60e51b815260206004820152600960248201526832b93937b91039bab160b91b604482015290519081900360640190fd5b50900390565b600082820183811015610976576040805162461bcd60e51b8152602060048201526009602482015268195c9c9bdc8818591960ba1b604482015290519081900360640190fd5b939250505056fea265627a7a723158204cb59db17ad57da3dd3b67b043c1ddf44d9662790702cb22447ebd8a1287993664736f6c63430005100032",
  "source": "pragma solidity >= 0.4.24;\r\n\r\nimport \"./SafeMath.sol\";\r\nimport \"./FongibleToken.sol\";\r\n\r\ncontract ERC20 is FongibleToken {\r\n\r\n    using SafeMath for uint256;\r\n\r\n    event Approval(address indexed owner, address indexed spender, uint256 indexed value);\r\n\r\n    mapping (address => mapping (address => uint256)) private _allowed;\r\n\r\n    constructor(string memory name, string memory ticker, uint totalSupply, uint8 decimals)\r\n    FongibleToken(name,ticker,totalSupply,decimals) public { }\r\n\r\n\r\n    function transfer(address _to, uint256 _value) public returns (bool)  {\r\n        _transfer(msg.sender, _to, _value);\r\n        return true;\r\n    }\r\n\r\n    function transferFrom(address _from, address _to, uint256 _value) public returns (bool) {\r\n        _transfer(_from, _to, _value);\r\n        return true;\r\n    }\r\n\r\n    function _transfer(address from, address to, uint256 value) private {\r\n        require(to != address(0), \"address 0x0\");\r\n\r\n        require(value <= super.getBalances(from), \"not enough fund\");\r\n        require(value <= _allowed[from][msg.sender], \"transfer not allowed\");\r\n\r\n        super._transferValueInBalances(from, to, value);\r\n\r\n        _allowed[from][msg.sender] -= value;\r\n\r\n        emit Transfer(from, to, value);\r\n    }\r\n\r\n\r\n    function approve(address spender, uint256 value) public returns (bool) {\r\n        _approve(msg.sender, spender, value);\r\n        return true;\r\n    }\r\n\r\n    function _approve(address sender, address spender, uint256 value) internal {\r\n        require(spender != address(0), \"address 0x0\");\r\n        require(sender != address(0), \"address 0x0\");\r\n\r\n        _allowed[sender][spender] = value;\r\n        emit Approval(sender, spender, value);\r\n    }\r\n\r\n    function allowance(address sender, address spender) public view returns (uint256) {\r\n        return _allowed[sender][spender];\r\n    }\r\n}",
  "sourcePath": "C:\\Users\\Administrateur\\Desktop\\ERC20 - ERC223\\contracts\\ERC20.sol",
  "compiler": {
    "name": "solc",
    "version": "0.5.16+commit.9c3226ce.Emscripten.clang"
  },
  "schemaVersion": "3.1.0",
  "updatedAt": "2020-05-17T21:40:00.214Z",
  "networkType": "ethereum",
  "devdoc": {
    "methods": {}
  },
  "userdoc": {
    "methods": {}
  }
}