{
  "contractName": "ERC223",
  "abi": [
    {
      "inputs": [
        {
          "internalType": "string",
          "name": "name",
          "type": "string"
        },
        {
          "internalType": "string",
          "name": "ticker",
          "type": "string"
        },
        {
          "internalType": "uint256",
          "name": "totalSupply",
          "type": "uint256"
        },
        {
          "internalType": "uint8",
          "name": "decimals",
          "type": "uint8"
        }
      ],
      "payable": false,
      "stateMutability": "nonpayable",
      "type": "constructor"
    },
    {
      "anonymous": false,
      "inputs": [
        {
          "indexed": true,
          "internalType": "address",
          "name": "previousOwner",
          "type": "address"
        },
        {
          "indexed": true,
          "internalType": "address",
          "name": "newOwner",
          "type": "address"
        }
      ],
      "name": "OwnershipTransferred",
      "type": "event"
    },
    {
      "anonymous": false,
      "inputs": [
        {
          "indexed": true,
          "internalType": "address",
          "name": "from",
          "type": "address"
        },
        {
          "indexed": true,
          "internalType": "address",
          "name": "to",
          "type": "address"
        },
        {
          "indexed": true,
          "internalType": "uint256",
          "name": "value",
          "type": "uint256"
        },
        {
          "indexed": false,
          "internalType": "bytes",
          "name": "_data",
          "type": "bytes"
        }
      ],
      "name": "Transfer",
      "type": "event"
    },
    {
      "anonymous": false,
      "inputs": [
        {
          "indexed": true,
          "internalType": "address",
          "name": "from",
          "type": "address"
        },
        {
          "indexed": true,
          "internalType": "address",
          "name": "to",
          "type": "address"
        },
        {
          "indexed": true,
          "internalType": "uint256",
          "name": "value",
          "type": "uint256"
        }
      ],
      "name": "Transfer",
      "type": "event"
    },
    {
      "constant": true,
      "inputs": [
        {
          "internalType": "address",
          "name": "_address",
          "type": "address"
        }
      ],
      "name": "balanceOf",
      "outputs": [
        {
          "internalType": "uint256",
          "name": "",
          "type": "uint256"
        }
      ],
      "payable": false,
      "stateMutability": "view",
      "type": "function"
    },
    {
      "constant": true,
      "inputs": [],
      "name": "decimals",
      "outputs": [
        {
          "internalType": "uint8",
          "name": "",
          "type": "uint8"
        }
      ],
      "payable": false,
      "stateMutability": "view",
      "type": "function"
    },
    {
      "constant": true,
      "inputs": [],
      "name": "isOwner",
      "outputs": [
        {
          "internalType": "bool",
          "name": "",
          "type": "bool"
        }
      ],
      "payable": false,
      "stateMutability": "view",
      "type": "function"
    },
    {
      "constant": true,
      "inputs": [],
      "name": "name",
      "outputs": [
        {
          "internalType": "string",
          "name": "",
          "type": "string"
        }
      ],
      "payable": false,
      "stateMutability": "view",
      "type": "function"
    },
    {
      "constant": true,
      "inputs": [],
      "name": "owner",
      "outputs": [
        {
          "internalType": "address",
          "name": "",
          "type": "address"
        }
      ],
      "payable": false,
      "stateMutability": "view",
      "type": "function"
    },
    {
      "constant": false,
      "inputs": [],
      "name": "renounceOwnership",
      "outputs": [],
      "payable": false,
      "stateMutability": "nonpayable",
      "type": "function"
    },
    {
      "constant": true,
      "inputs": [],
      "name": "ticker",
      "outputs": [
        {
          "internalType": "string",
          "name": "",
          "type": "string"
        }
      ],
      "payable": false,
      "stateMutability": "view",
      "type": "function"
    },
    {
      "constant": true,
      "inputs": [],
      "name": "totalSupply",
      "outputs": [
        {
          "internalType": "uint256",
          "name": "",
          "type": "uint256"
        }
      ],
      "payable": false,
      "stateMutability": "view",
      "type": "function"
    },
    {
      "constant": false,
      "inputs": [
        {
          "internalType": "address",
          "name": "newOwner",
          "type": "address"
        }
      ],
      "name": "transferOwnership",
      "outputs": [],
      "payable": false,
      "stateMutability": "nonpayable",
      "type": "function"
    },
    {
      "constant": false,
      "inputs": [
        {
          "internalType": "address",
          "name": "_to",
          "type": "address"
        },
        {
          "internalType": "uint256",
          "name": "_value",
          "type": "uint256"
        }
      ],
      "name": "transfer",
      "outputs": [
        {
          "internalType": "bool",
          "name": "success",
          "type": "bool"
        }
      ],
      "payable": false,
      "stateMutability": "nonpayable",
      "type": "function"
    },
    {
      "constant": false,
      "inputs": [
        {
          "internalType": "address",
          "name": "_to",
          "type": "address"
        },
        {
          "internalType": "uint256",
          "name": "_value",
          "type": "uint256"
        },
        {
          "internalType": "bytes",
          "name": "_data",
          "type": "bytes"
        }
      ],
      "name": "transfer",
      "outputs": [
        {
          "internalType": "bool",
          "name": "success",
          "type": "bool"
        }
      ],
      "payable": false,
      "stateMutability": "nonpayable",
      "type": "function"
    }
  ],
  "bytecode": "0x60806040523480156200001157600080fd5b5060405162000eaf38038062000eaf833981810160405260808110156200003757600080fd5b81019080805160405193929190846401000000008211156200005857600080fd5b9083019060208201858111156200006e57600080fd5b82516401000000008111828201881017156200008957600080fd5b82525081516020918201929091019080838360005b83811015620000b85781810151838201526020016200009e565b50505050905090810190601f168015620000e65780820380516001836020036101000a031916815260200191505b50604052602001805160405193929190846401000000008211156200010a57600080fd5b9083019060208201858111156200012057600080fd5b82516401000000008111828201881017156200013b57600080fd5b82525081516020918201929091019080838360005b838110156200016a57818101518382015260200162000150565b50505050905090810190601f168015620001985780820380516001836020036101000a031916815260200191505b5060408181526020830151920151600080546001600160a01b031916331780825593955090935086928692869286926001600160a01b0316917f8be0079c531659141344cd1fd0a4f28419497f9722a3daafe3b4186f6b6457e0908290a383516200020b9060029060208701906200040a565b508251620002219060039060208601906200040a565b5060048290556005805460ff191660ff8316179055620002566200024462000264565b6004546001600160e01b036200027416565b5050505050505050620004ac565b6000546001600160a01b03165b90565b620002876001600160e01b03620003ab16565b620002c5576040805162461bcd60e51b81526020600482015260096024820152683737ba1037bbb732b960b91b604482015290519081900360640190fd5b6001600160a01b0382166200030f576040805162461bcd60e51b815260206004820152600b60248201526a061646472657373203078360ac1b604482015290519081900360640190fd5b6200032b81600454620003bc60201b620009711790919060201c565b6004556001600160a01b0382166000908152600160209081526040909120546200036091839062000971620003bc821b17901c565b6001600160a01b0383166000818152600160205260408082209390935591518392907fddf252ad1be2c89b69c2b068fc378daa952ba7f163c4a11628f55a4df523b3ef908290a45050565b6000546001600160a01b0316331490565b60008282018381101562000403576040805162461bcd60e51b8152602060048201526009602482015268195c9c9bdc8818591960ba1b604482015290519081900360640190fd5b9392505050565b828054600181600116156101000203166002900490600052602060002090601f016020900481019282601f106200044d57805160ff19168380011785556200047d565b828001600101855582156200047d579182015b828111156200047d57825182559160200191906001019062000460565b506200048b9291506200048f565b5090565b6200027191905b808211156200048b576000815560010162000496565b6109f380620004bc6000396000f3fe608060405234801561001057600080fd5b50600436106100a95760003560e01c80638ba47bdd116100715780638ba47bdd146101935780638da5cb5b1461019b5780638f32d59b146101bf578063a9059cbb146101db578063be45fd6214610207578063f2fde38b146102c2576100a9565b806306fdde03146100ae57806318160ddd1461012b578063313ce5671461014557806370a0823114610163578063715018a614610189575b600080fd5b6100b66102e8565b6040805160208082528351818301528351919283929083019185019080838360005b838110156100f05781810151838201526020016100d8565b50505050905090810190601f16801561011d5780820380516001836020036101000a031916815260200191505b509250505060405180910390f35b61013361037b565b60408051918252519081900360200190f35b61014d610381565b6040805160ff9092168252519081900360200190f35b6101336004803603602081101561017957600080fd5b50356001600160a01b031661038a565b6101916103a5565b005b6100b6610434565b6101a3610495565b604080516001600160a01b039092168252519081900360200190f35b6101c76104a4565b604080519115158252519081900360200190f35b6101c7600480360360408110156101f157600080fd5b506001600160a01b0381351690602001356104b5565b6101c76004803603606081101561021d57600080fd5b6001600160a01b038235169160208101359181019060608101604082013564010000000081111561024d57600080fd5b82018360208201111561025f57600080fd5b8035906020019184600183028401116401000000008311171561028157600080fd5b91908080601f0160208091040260200160405190810160405280939291908181526020018383808284376000920191909152509295506105ff945050505050565b610191600480360360208110156102d857600080fd5b50356001600160a01b03166107a9565b60028054604080516020601f60001961010060018716150201909416859004938401819004810282018101909252828152606093909290918301828280156103715780601f1061034657610100808354040283529160200191610371565b820191906000526020600020905b81548152906001019060200180831161035457829003601f168201915b5050505050905090565b60045490565b60055460ff1690565b6001600160a01b031660009081526001602052604090205490565b6103ad6104a4565b6103ea576040805162461bcd60e51b81526020600482015260096024820152683737ba1037bbb732b960b91b604482015290519081900360640190fd5b600080546040516001600160a01b03909116907f8be0079c531659141344cd1fd0a4f28419497f9722a3daafe3b4186f6b6457e0908390a3600080546001600160a01b0319169055565b60038054604080516020601f60026000196101006001881615020190951694909404938401819004810282018101909252828152606093909290918301828280156103715780601f1061034657610100808354040283529160200191610371565b6000546001600160a01b031690565b6000546001600160a01b0316331490565b6040805180820190915260048152600060208201819052906104d83385856107fa565b506104e284610880565b156105bd5760405163607705c560e11b815233600482018181526024830186905260606044840190815284516064850152845188946001600160a01b0386169463c0ee0b8a9490938a93899360840190602085019080838360005b8381101561055557818101518382015260200161053d565b50505050905090810190601f1680156105825780820380516001836020036101000a031916815260200191505b50945050505050600060405180830381600087803b1580156105a357600080fd5b505af11580156105b7573d6000803e3d6000fd5b50505050505b60405183906001600160a01b0386169033907fddf252ad1be2c89b69c2b068fc378daa952ba7f163c4a11628f55a4df523b3ef90600090a45060019392505050565b600061060c3385856107fa565b5061061684610880565b156106f15760405163607705c560e11b815233600482018181526024830186905260606044840190815285516064850152855188946001600160a01b0386169463c0ee0b8a9490938a938a9360840190602085019080838360005b83811015610689578181015183820152602001610671565b50505050905090810190601f1680156106b65780820380516001836020036101000a031916815260200191505b50945050505050600060405180830381600087803b1580156106d757600080fd5b505af11580156106eb573d6000803e3d6000fd5b50505050505b82846001600160a01b0316336001600160a01b03167fe19260aff97b920c7df27010903aeb9c8d2be5d310a2c67824cf3f15396e4c16856040518080602001828103825283818151815260200191508051906020019080838360005b8381101561076557818101518382015260200161074d565b50505050905090810190601f1680156107925780820380516001836020036101000a031916815260200191505b509250505060405180910390a45060019392505050565b6107b16104a4565b6107ee576040805162461bcd60e51b81526020600482015260096024820152683737ba1037bbb732b960b91b604482015290519081900360640190fd5b6107f781610886565b50565b6001600160a01b038316600090815260016020526040812054610823908363ffffffff61092816565b6001600160a01b038086166000908152600160205260408082209390935590851681522054610858908363ffffffff61097116565b6001600160a01b03841660009081526001602081905260409091209190915590509392505050565b3b151590565b6001600160a01b0381166108cd576040805162461bcd60e51b81526020600482015260096024820152683737ba1037bbb732b960b91b604482015290519081900360640190fd5b600080546040516001600160a01b03808516939216917f8be0079c531659141344cd1fd0a4f28419497f9722a3daafe3b4186f6b6457e091a3600080546001600160a01b0319166001600160a01b0392909216919091179055565b60008282111561096b576040805162461bcd60e51b815260206004820152600960248201526832b93937b91039bab160b91b604482015290519081900360640190fd5b50900390565b6000828201838110156109b7576040805162461bcd60e51b8152602060048201526009602482015268195c9c9bdc8818591960ba1b604482015290519081900360640190fd5b939250505056fea265627a7a7231582004404a6634ebff28092b56890746668b1511c62c478cb5c245280bceb2cc405e64736f6c63430005100032",
  "source": "pragma solidity >= 0.5.1;\r\n\r\nimport \"./IERC223Recipient.sol\";\r\nimport \"./FongibleToken.sol\";\r\nimport \"./SafeMath.sol\";\r\nimport \"./Address.sol\";\r\n\r\n/**\r\n * @title Reference implementation of the ERC223 standard token.\r\n */\r\ncontract ERC223 is FongibleToken {\r\n    using SafeMath for uint;\r\n\r\n    event Transfer(address indexed from, address indexed to, uint256 indexed value, bytes _data);\r\n\r\n    constructor(string memory name, string memory ticker, uint totalSupply, uint8 decimals)\r\n    FongibleToken(name,ticker,totalSupply,decimals) public { }\r\n\r\n    /**\r\n     * @dev Transfer the specified amount of tokens to the specified address.\r\n     *      Invokes the `tokenFallback` function if the recipient is a contract.\r\n     *      The token transfer fails if the recipient is a contract\r\n     *      but does not implement the `tokenFallback` function\r\n     *      or the fallback function to receive funds.\r\n     *\r\n     * @param _to    Receiver address.\r\n     * @param _value Amount of tokens that will be transferred.\r\n     * @param _data  Transaction metadata.\r\n     */\r\n    function transfer(address _to, uint _value, bytes memory _data) public returns (bool success){\r\n        // Standard function transfer similar to ERC20 transfer with no _data .\r\n        // Added due to backwards compatibility reasons .\r\n        super._transferValueInBalances(msg.sender, _to, _value);\r\n        if(Address.isContract(_to)) {\r\n            IERC223Recipient receiver = IERC223Recipient(_to);\r\n            receiver.tokenFallback(msg.sender, _value, _data);\r\n        }\r\n        emit Transfer(msg.sender, _to, _value, _data);\r\n        return true;\r\n    }\r\n\r\n    /**\r\n     * @dev Transfer the specified amount of tokens to the specified address.\r\n     *      This function works the same with the previous one\r\n     *      but doesn't contain `_data` param.\r\n     *      Added due to backwards compatibility reasons.\r\n     *\r\n     * @param _to    Receiver address.\r\n     * @param _value Amount of tokens that will be transferred.\r\n     */\r\n    function transfer(address _to, uint _value) public returns (bool success){\r\n        bytes memory empty = hex\"00000000\";\r\n        super._transferValueInBalances(msg.sender, _to, _value);\r\n        if(Address.isContract(_to)) {\r\n            IERC223Recipient receiver = IERC223Recipient(_to);\r\n            receiver.tokenFallback(msg.sender, _value, empty);\r\n        }\r\n        emit Transfer(msg.sender, _to, _value);\r\n        return true;\r\n    }\r\n\r\n}",
  "sourcePath": "C:\\Users\\Administrateur\\Desktop\\ERC20 - ERC223\\contracts\\ERC223.sol",
  "compiler": {
    "name": "solc",
    "version": "0.5.16+commit.9c3226ce.Emscripten.clang"
  },
  "schemaVersion": "3.1.0",
  "updatedAt": "2020-05-17T21:40:00.220Z",
  "networkType": "ethereum",
  "devdoc": {
    "methods": {
      "transfer(address,uint256)": {
        "details": "Transfer the specified amount of tokens to the specified address.     This function works the same with the previous one     but doesn't contain `_data` param.     Added due to backwards compatibility reasons. ",
        "params": {
          "_to": "Receiver address.",
          "_value": "Amount of tokens that will be transferred."
        }
      },
      "transfer(address,uint256,bytes)": {
        "details": "Transfer the specified amount of tokens to the specified address.     Invokes the `tokenFallback` function if the recipient is a contract.     The token transfer fails if the recipient is a contract     but does not implement the `tokenFallback` function     or the fallback function to receive funds. ",
        "params": {
          "_data": "Transaction metadata.",
          "_to": "Receiver address.",
          "_value": "Amount of tokens that will be transferred."
        }
      }
    },
    "title": "Reference implementation of the ERC223 standard token."
  },
  "userdoc": {
    "methods": {}
  }
}