{
  "contractName": "ERC721",
  "abi": [
    {
      "anonymous": false,
      "inputs": [
        {
          "indexed": true,
          "internalType": "address",
          "name": "owner",
          "type": "address"
        },
        {
          "indexed": true,
          "internalType": "address",
          "name": "approved",
          "type": "address"
        },
        {
          "indexed": true,
          "internalType": "uint256",
          "name": "tokenId",
          "type": "uint256"
        }
      ],
      "name": "Approval",
      "type": "event"
    },
    {
      "anonymous": false,
      "inputs": [
        {
          "indexed": true,
          "internalType": "address",
          "name": "owner",
          "type": "address"
        },
        {
          "indexed": true,
          "internalType": "address",
          "name": "operator",
          "type": "address"
        },
        {
          "indexed": false,
          "internalType": "bool",
          "name": "approved",
          "type": "bool"
        }
      ],
      "name": "ApprovalForAll",
      "type": "event"
    },
    {
      "anonymous": false,
      "inputs": [
        {
          "indexed": true,
          "internalType": "address",
          "name": "previousOwner",
          "type": "address"
        },
        {
          "indexed": true,
          "internalType": "address",
          "name": "newOwner",
          "type": "address"
        }
      ],
      "name": "OwnershipTransferred",
      "type": "event"
    },
    {
      "anonymous": false,
      "inputs": [
        {
          "indexed": true,
          "internalType": "address",
          "name": "from",
          "type": "address"
        },
        {
          "indexed": true,
          "internalType": "address",
          "name": "to",
          "type": "address"
        },
        {
          "indexed": true,
          "internalType": "uint256",
          "name": "tokenId",
          "type": "uint256"
        }
      ],
      "name": "Transfer",
      "type": "event"
    },
    {
      "constant": true,
      "inputs": [],
      "name": "isOwner",
      "outputs": [
        {
          "internalType": "bool",
          "name": "",
          "type": "bool"
        }
      ],
      "payable": false,
      "stateMutability": "view",
      "type": "function"
    },
    {
      "constant": true,
      "inputs": [],
      "name": "owner",
      "outputs": [
        {
          "internalType": "address",
          "name": "",
          "type": "address"
        }
      ],
      "payable": false,
      "stateMutability": "view",
      "type": "function"
    },
    {
      "constant": false,
      "inputs": [],
      "name": "renounceOwnership",
      "outputs": [],
      "payable": false,
      "stateMutability": "nonpayable",
      "type": "function"
    },
    {
      "constant": false,
      "inputs": [
        {
          "internalType": "address",
          "name": "newOwner",
          "type": "address"
        }
      ],
      "name": "transferOwnership",
      "outputs": [],
      "payable": false,
      "stateMutability": "nonpayable",
      "type": "function"
    },
    {
      "constant": true,
      "inputs": [
        {
          "internalType": "address",
          "name": "owner",
          "type": "address"
        }
      ],
      "name": "balanceOf",
      "outputs": [
        {
          "internalType": "uint256",
          "name": "",
          "type": "uint256"
        }
      ],
      "payable": false,
      "stateMutability": "view",
      "type": "function"
    },
    {
      "constant": true,
      "inputs": [
        {
          "internalType": "uint256",
          "name": "tokenId",
          "type": "uint256"
        }
      ],
      "name": "ownerOf",
      "outputs": [
        {
          "internalType": "address",
          "name": "",
          "type": "address"
        }
      ],
      "payable": false,
      "stateMutability": "view",
      "type": "function"
    },
    {
      "constant": false,
      "inputs": [
        {
          "internalType": "address",
          "name": "from",
          "type": "address"
        },
        {
          "internalType": "address",
          "name": "to",
          "type": "address"
        },
        {
          "internalType": "uint256",
          "name": "tokenId",
          "type": "uint256"
        }
      ],
      "name": "transferFrom",
      "outputs": [],
      "payable": false,
      "stateMutability": "nonpayable",
      "type": "function"
    },
    {
      "constant": false,
      "inputs": [
        {
          "internalType": "address",
          "name": "from",
          "type": "address"
        },
        {
          "internalType": "address",
          "name": "to",
          "type": "address"
        },
        {
          "internalType": "uint256",
          "name": "tokenId",
          "type": "uint256"
        }
      ],
      "name": "safeTransferFrom",
      "outputs": [],
      "payable": false,
      "stateMutability": "nonpayable",
      "type": "function"
    },
    {
      "constant": false,
      "inputs": [
        {
          "internalType": "address",
          "name": "to",
          "type": "address"
        },
        {
          "internalType": "uint256",
          "name": "tokenId",
          "type": "uint256"
        }
      ],
      "name": "mintToken",
      "outputs": [],
      "payable": false,
      "stateMutability": "nonpayable",
      "type": "function"
    },
    {
      "constant": false,
      "inputs": [
        {
          "internalType": "address",
          "name": "owner",
          "type": "address"
        },
        {
          "internalType": "uint256",
          "name": "tokenId",
          "type": "uint256"
        }
      ],
      "name": "burnToken",
      "outputs": [],
      "payable": false,
      "stateMutability": "nonpayable",
      "type": "function"
    },
    {
      "constant": false,
      "inputs": [
        {
          "internalType": "address",
          "name": "to",
          "type": "address"
        },
        {
          "internalType": "uint256",
          "name": "tokenId",
          "type": "uint256"
        }
      ],
      "name": "approve",
      "outputs": [],
      "payable": false,
      "stateMutability": "nonpayable",
      "type": "function"
    },
    {
      "constant": true,
      "inputs": [
        {
          "internalType": "address",
          "name": "to",
          "type": "address"
        },
        {
          "internalType": "uint256",
          "name": "tokenId",
          "type": "uint256"
        }
      ],
      "name": "tokenApproved",
      "outputs": [
        {
          "internalType": "bool",
          "name": "",
          "type": "bool"
        }
      ],
      "payable": false,
      "stateMutability": "view",
      "type": "function"
    },
    {
      "constant": true,
      "inputs": [
        {
          "internalType": "uint256",
          "name": "tokenId",
          "type": "uint256"
        }
      ],
      "name": "getApproved",
      "outputs": [
        {
          "internalType": "address",
          "name": "",
          "type": "address"
        }
      ],
      "payable": false,
      "stateMutability": "view",
      "type": "function"
    },
    {
      "constant": false,
      "inputs": [
        {
          "internalType": "address",
          "name": "to",
          "type": "address"
        },
        {
          "internalType": "bool",
          "name": "approved",
          "type": "bool"
        }
      ],
      "name": "setApprovalForAll",
      "outputs": [],
      "payable": false,
      "stateMutability": "nonpayable",
      "type": "function"
    },
    {
      "constant": true,
      "inputs": [
        {
          "internalType": "address",
          "name": "owner",
          "type": "address"
        },
        {
          "internalType": "address",
          "name": "operator",
          "type": "address"
        }
      ],
      "name": "isApprovedForAll",
      "outputs": [
        {
          "internalType": "bool",
          "name": "",
          "type": "bool"
        }
      ],
      "payable": false,
      "stateMutability": "view",
      "type": "function"
    }
  ],
  "bytecode": "0x60806040819052600080546001600160a01b03191633178082556001600160a01b0316917f8be0079c531659141344cd1fd0a4f28419497f9722a3daafe3b4186f6b6457e0908290a3610d6e806100576000396000f3fe608060405234801561001057600080fd5b50600436106100f55760003560e01c8063715018a611610097578063a22cb46511610066578063a22cb465146102a6578063d1df306c146102d4578063e985e9c514610300578063f2fde38b1461032e576100f5565b8063715018a61461026257806379c650681461026a5780638da5cb5b146102965780638f32d59b1461029e576100f5565b80634183d547116100d35780634183d5471461019757806342842e0e146101d75780636352211e1461020d57806370a082311461022a576100f5565b8063081812fc146100fa578063095ea7b31461013357806323b872dd14610161575b600080fd5b6101176004803603602081101561011057600080fd5b5035610354565b604080516001600160a01b039092168252519081900360200190f35b61015f6004803603604081101561014957600080fd5b506001600160a01b0381351690602001356103c2565b005b61015f6004803603606081101561017757600080fd5b506001600160a01b038135811691602081013590911690604001356104c3565b6101c3600480360360408110156101ad57600080fd5b506001600160a01b038135169060200135610508565b604080519115158252519081900360200190f35b61015f600480360360608110156101ed57600080fd5b506001600160a01b0381358116916020810135909116906040013561051b565b6101176004803603602081101561022357600080fd5b5035610526565b6102506004803603602081101561024057600080fd5b50356001600160a01b0316610584565b60408051918252519081900360200190f35b61015f6105f0565b61015f6004803603604081101561028057600080fd5b506001600160a01b03813516906020013561067f565b61011761068d565b6101c361069c565b61015f600480360360408110156102bc57600080fd5b506001600160a01b03813516906020013515156106ad565b61015f600480360360408110156102ea57600080fd5b506001600160a01b038135169060200135610779565b6101c36004803603604081101561031657600080fd5b506001600160a01b0381358116916020013516610783565b61015f6004803603602081101561034457600080fd5b50356001600160a01b03166107b1565b600061035f82610802565b6103a6576040805162461bcd60e51b81526020600482015260136024820152721d1bdad95b88191bd95cdb89dd08195e1a5cdd606a1b604482015290519081900360640190fd5b506000908152600260205260409020546001600160a01b031690565b60006103cd82610526565b9050806001600160a01b0316836001600160a01b031614156104205760405162461bcd60e51b8152600401808060200182810382526026815260200180610d146026913960400191505060405180910390fd5b336001600160a01b038216148061043c575061043c8133610783565b610467576040805162461bcd60e51b8152602060048201526000602482015290519081900360640190fd5b60008281526002602052604080822080546001600160a01b0319166001600160a01b0387811691821790925591518593918516917f8c5be1e5ebec7d5bd14f71427d1e84f3dd0314c0f7b2291e5b200ac8c7c3b92591a4505050565b6104cd338261081f565b6104f8576040805162461bcd60e51b8152602060048201526000602482015290519081900360640190fd5b61050383838361087e565b505050565b6000610514838361081f565b9392505050565b6105038383836104c3565b6000818152600160205260408120546001600160a01b03168061057e576040805162461bcd60e51b815260206004820152600b60248201526a061646472657373203078360ac1b604482015290519081900360640190fd5b92915050565b60006001600160a01b0382166105cf576040805162461bcd60e51b815260206004820152600b60248201526a061646472657373203078360ac1b604482015290519081900360640190fd5b6001600160a01b038216600090815260036020526040902061057e906109d1565b6105f861069c565b610635576040805162461bcd60e51b81526020600482015260096024820152683737ba1037bbb732b960b91b604482015290519081900360640190fd5b600080546040516001600160a01b03909116907f8be0079c531659141344cd1fd0a4f28419497f9722a3daafe3b4186f6b6457e0908390a3600080546001600160a01b0319169055565b61068982826109d5565b5050565b6000546001600160a01b031690565b6000546001600160a01b0316331490565b6001600160a01b03821633141561070b576040805162461bcd60e51b815260206004820152601860248201527f796f7520617070726f766520666f7220796f757273656c660000000000000000604482015290519081900360640190fd5b3360008181526004602090815260408083206001600160a01b03871680855290835292819020805460ff1916861515908117909155815190815290519293927f17307eab39ab6107e8899845ad3d59bd9653f200f220920489ca2b5937696c31929181900390910190a35050565b6106898282610aeb565b6001600160a01b03918216600090815260046020908152604080832093909416825291909152205460ff1690565b6107b961069c565b6107f6576040805162461bcd60e51b81526020600482015260096024820152683737ba1037bbb732b960b91b604482015290519081900360640190fd5b6107ff81610bcd565b50565b6000908152600160205260409020546001600160a01b0316151590565b60008061082b83610526565b9050806001600160a01b0316846001600160a01b031614806108665750836001600160a01b031661085b84610354565b6001600160a01b0316145b8061087657506108768185610783565b949350505050565b826001600160a01b031661089182610526565b6001600160a01b0316146108e1576040805162461bcd60e51b81526020600482015260126024820152713737ba1037bbb732b91037b3103a37b5b2b760711b604482015290519081900360640190fd5b6001600160a01b03821661092a576040805162461bcd60e51b815260206004820152600b60248201526a061646472657373203078360ac1b604482015290519081900360640190fd5b61093381610c6f565b6001600160a01b038316600090815260036020526040902061095490610caa565b6001600160a01b038216600090815260036020526040902061097590610cc1565b60008181526001602052604080822080546001600160a01b0319166001600160a01b0386811691821790925591518493918716917fddf252ad1be2c89b69c2b068fc378daa952ba7f163c4a11628f55a4df523b3ef91a4505050565b5490565b6001600160a01b038216610a1e576040805162461bcd60e51b815260206004820152600b60248201526a061646472657373203078360ac1b604482015290519081900360640190fd5b610a2781610802565b15610a70576040805162461bcd60e51b8152602060048201526014602482015273746f6b656e20616c72656164792065786973747360601b604482015290519081900360640190fd5b600081815260016020908152604080832080546001600160a01b0319166001600160a01b038716908117909155835260039091529020610aaf90610cc1565b60405181906001600160a01b038416906000907fddf252ad1be2c89b69c2b068fc378daa952ba7f163c4a11628f55a4df523b3ef908290a45050565b816001600160a01b0316610afe82610526565b6001600160a01b031614610b4e576040805162461bcd60e51b81526020600482015260126024820152713737ba1037bbb732b91037b3103a37b5b2b760711b604482015290519081900360640190fd5b610b5781610c6f565b6001600160a01b0382166000908152600360205260409020610b7890610caa565b60008181526001602052604080822080546001600160a01b0319169055518291906001600160a01b038516907fddf252ad1be2c89b69c2b068fc378daa952ba7f163c4a11628f55a4df523b3ef908390a45050565b6001600160a01b038116610c14576040805162461bcd60e51b81526020600482015260096024820152683737ba1037bbb732b960b91b604482015290519081900360640190fd5b600080546040516001600160a01b03808516939216917f8be0079c531659141344cd1fd0a4f28419497f9722a3daafe3b4186f6b6457e091a3600080546001600160a01b0319166001600160a01b0392909216919091179055565b6000818152600260205260409020546001600160a01b0316156107ff57600090815260026020526040902080546001600160a01b0319169055565b8054610cbd90600163ffffffff610cca16565b9055565b80546001019055565b600082821115610d0d576040805162461bcd60e51b815260206004820152600960248201526832b93937b91039bab160b91b604482015290519081900360640190fd5b5090039056fe796f7520617070726f766520666f7220746865206f776e6572206f662074686520746f6b656ea265627a7a723158208487bdda8483a3b46f67301ab41cce4a2f3b66a60acea3e2f7396c2d39552c2764736f6c63430005100032",
  "source": "pragma solidity >=0.4.24;\r\n\r\nimport \"./Ownable.sol\";\r\nimport \"./SafeMath.sol\";\r\nimport \"./Counters.sol\";\r\n\r\ncontract ERC721 is Ownable {\r\n    using SafeMath for uint256;\r\n    using Counters for Counters.Counter;\r\n\r\n    event Transfer(address indexed from, address indexed to, uint indexed tokenId);\r\n    event Approval(address indexed owner, address indexed approved, uint indexed tokenId);\r\n    event ApprovalForAll(address indexed owner, address indexed operator, bool approved);\r\n\r\n    mapping (uint => address) private _tokenOwner;\r\n    mapping (uint => address) private _tokenApprovals;\r\n    mapping (address => Counters.Counter) private _ownedTokensCount;\r\n    mapping (address => mapping (address => bool)) private _operatorApprovals;\r\n\r\n    function balanceOf(address owner) public view returns (uint) {\r\n        require(owner != address(0), \"address 0x0\");\r\n        return _ownedTokensCount[owner].current();\r\n    }\r\n\r\n    function ownerOf(uint tokenId) public view returns (address) {\r\n        address owner = _tokenOwner[tokenId];\r\n        require(owner != address(0), \"address 0x0\");\r\n        return owner;\r\n    }\r\n\r\n    function transferFrom(address from, address to, uint tokenId) public {\r\n        require(_isApprovedOrOwner(msg.sender, tokenId), \"\");\r\n        _transferFrom(from, to, tokenId);\r\n    }\r\n\r\n    function safeTransferFrom(address from, address to, uint tokenId) public {\r\n        transferFrom(from, to, tokenId);\r\n    }\r\n\r\n    function _exists(uint tokenId) internal view returns (bool) {\r\n        address owner = _tokenOwner[tokenId];\r\n        return owner != address(0);\r\n    }\r\n\r\n    function mintToken(address to, uint tokenId) public {\r\n        _mint(to, tokenId);\r\n    }\r\n\r\n    function burnToken(address owner, uint tokenId) public {\r\n        _burn(owner, tokenId);\r\n    }\r\n\r\n    function _mint(address to, uint tokenId) internal {\r\n        require(to != address(0), \"address 0x0\");\r\n        require(!_exists(tokenId), \"token already exists\");\r\n        _tokenOwner[tokenId] = to;\r\n        _ownedTokensCount[to].increment();\r\n        emit Transfer(address(0), to, tokenId);\r\n    }\r\n    \r\n    function _burn(address _address, uint tokenId) internal {\r\n        require(ownerOf(tokenId) == _address, \"not owner of token\");\r\n        _clearApproval(tokenId);\r\n        _ownedTokensCount[_address].decrement();\r\n        _tokenOwner[tokenId] = address(0);\r\n        emit Transfer(_address, address(0), tokenId);\r\n    }\r\n\r\n    function _transferFrom(address from, address to, uint tokenId) internal {\r\n        require(ownerOf(tokenId) == from, \"not owner of token\");\r\n        require(to != address(0), \"address 0x0\");\r\n        _clearApproval(tokenId);\r\n        _ownedTokensCount[from].decrement();\r\n        _ownedTokensCount[to].increment();\r\n        _tokenOwner[tokenId] = to;\r\n        emit Transfer(from, to, tokenId);\r\n    }\r\n\r\n    function approve(address to, uint tokenId) public {\r\n        address owner = ownerOf(tokenId);\r\n        require(to != owner, \"you approve for the owner of the token\");\r\n        require(msg.sender == owner || isApprovedForAll(owner, msg.sender), \"\");\r\n        _tokenApprovals[tokenId] = to;\r\n        emit Approval(owner, to, tokenId);\r\n    }\r\n\r\n    function tokenApproved(address to, uint tokenId) public view returns (bool) {\r\n        return _isApprovedOrOwner(to, tokenId);\r\n    }\r\n\r\n    function getApproved(uint tokenId) public view returns (address) {\r\n        require(_exists(tokenId), \"token doesn't exist\");\r\n        return _tokenApprovals[tokenId];\r\n    }\r\n\r\n    function setApprovalForAll(address to, bool approved) public {\r\n        require(to != msg.sender, \"you approve for yourself\");\r\n        _operatorApprovals[msg.sender][to] = approved;\r\n        emit ApprovalForAll(msg.sender, to, approved);\r\n    }\r\n\r\n    function isApprovedForAll(address owner, address operator) public view returns (bool) {\r\n        return _operatorApprovals[owner][operator];\r\n    }\r\n\r\n    function _isApprovedOrOwner(address spender, uint tokenId) internal view returns (bool) {\r\n        address owner = ownerOf(tokenId);\r\n        return (spender == owner || getApproved(tokenId) == spender || isApprovedForAll(owner, spender));\r\n    }\r\n\r\n    function _clearApproval(uint tokenId) private {\r\n        if (_tokenApprovals[tokenId] != address(0)) {\r\n            _tokenApprovals[tokenId] = address(0);\r\n        }\r\n    }\r\n}\r\n",
  "sourcePath": "C:\\Users\\Administrateur\\Desktop\\ERC20 - ERC223\\contracts\\ERC721.sol",
  "compiler": {
    "name": "solc",
    "version": "0.5.16+commit.9c3226ce.Emscripten.clang"
  },
  "schemaVersion": "3.1.0",
  "updatedAt": "2020-05-17T21:40:00.203Z",
  "networkType": "ethereum",
  "devdoc": {
    "methods": {}
  },
  "userdoc": {
    "methods": {}
  }
}