{
  "contractName": "FTCrowdsale",
  "abi": [
    {
      "inputs": [
        {
          "internalType": "uint256",
          "name": "rate",
          "type": "uint256"
        },
        {
          "internalType": "uint256",
          "name": "minSpent",
          "type": "uint256"
        },
        {
          "internalType": "uint256",
          "name": "cap",
          "type": "uint256"
        },
        {
          "internalType": "contract ERC20",
          "name": "token",
          "type": "address"
        }
      ],
      "payable": false,
      "stateMutability": "nonpayable",
      "type": "constructor"
    },
    {
      "anonymous": false,
      "inputs": [
        {
          "indexed": false,
          "internalType": "uint256",
          "name": "cap",
          "type": "uint256"
        },
        {
          "indexed": false,
          "internalType": "uint256",
          "name": "weiRaised",
          "type": "uint256"
        }
      ],
      "name": "CapRaised",
      "type": "event"
    },
    {
      "anonymous": false,
      "inputs": [
        {
          "indexed": true,
          "internalType": "address",
          "name": "purchaser",
          "type": "address"
        },
        {
          "indexed": true,
          "internalType": "address",
          "name": "beneficiary",
          "type": "address"
        },
        {
          "indexed": false,
          "internalType": "uint256",
          "name": "value",
          "type": "uint256"
        },
        {
          "indexed": false,
          "internalType": "uint256",
          "name": "amount",
          "type": "uint256"
        }
      ],
      "name": "TokensPurchased",
      "type": "event"
    },
    {
      "constant": false,
      "inputs": [],
      "name": "purchaseToken",
      "outputs": [],
      "payable": true,
      "stateMutability": "payable",
      "type": "function"
    },
    {
      "constant": true,
      "inputs": [],
      "name": "token",
      "outputs": [
        {
          "internalType": "contract ERC20",
          "name": "",
          "type": "address"
        }
      ],
      "payable": false,
      "stateMutability": "view",
      "type": "function"
    },
    {
      "constant": true,
      "inputs": [],
      "name": "owner",
      "outputs": [
        {
          "internalType": "address",
          "name": "",
          "type": "address"
        }
      ],
      "payable": false,
      "stateMutability": "view",
      "type": "function"
    },
    {
      "constant": true,
      "inputs": [],
      "name": "rate",
      "outputs": [
        {
          "internalType": "uint256",
          "name": "",
          "type": "uint256"
        }
      ],
      "payable": false,
      "stateMutability": "view",
      "type": "function"
    },
    {
      "constant": true,
      "inputs": [],
      "name": "weiRaised",
      "outputs": [
        {
          "internalType": "uint256",
          "name": "",
          "type": "uint256"
        }
      ],
      "payable": false,
      "stateMutability": "view",
      "type": "function"
    },
    {
      "constant": true,
      "inputs": [],
      "name": "cap",
      "outputs": [
        {
          "internalType": "uint256",
          "name": "",
          "type": "uint256"
        }
      ],
      "payable": false,
      "stateMutability": "view",
      "type": "function"
    },
    {
      "constant": true,
      "inputs": [],
      "name": "minSpent",
      "outputs": [
        {
          "internalType": "uint256",
          "name": "",
          "type": "uint256"
        }
      ],
      "payable": false,
      "stateMutability": "view",
      "type": "function"
    },
    {
      "constant": false,
      "inputs": [
        {
          "internalType": "uint256",
          "name": "amount",
          "type": "uint256"
        }
      ],
      "name": "raiseCap",
      "outputs": [],
      "payable": false,
      "stateMutability": "nonpayable",
      "type": "function"
    },
    {
      "constant": false,
      "inputs": [
        {
          "internalType": "address",
          "name": "beneficiary",
          "type": "address"
        }
      ],
      "name": "buyTokens",
      "outputs": [],
      "payable": true,
      "stateMutability": "payable",
      "type": "function"
    }
  ],
  "bytecode": "0x608060405234801561001057600080fd5b506040516107a93803806107a98339818101604052608081101561003357600080fd5b5080516020820151604083015160609093015160016000559192909183610094576040805162461bcd60e51b815260206004820152601060248201526f72617465206973206e6567617469766560801b604482015290519081900360640190fd5b6001600160a01b0381166100dd576040805162461bcd60e51b815260206004820152600b60248201526a061646472657373203078360ac1b604482015290519081900360640190fd5b60008211610124576040805162461bcd60e51b815260206004820152600f60248201526e636170206973206e6567617469766560881b604482015290519081900360640190fd5b60069190915560028054336001600160a01b031991821617909155600393909355600180549093166001600160a01b039091161790915560055561063c8061016d6000396000f3fe6080604052600436106100865760003560e01c80635410ac50116100595780635410ac50146100f15780638da5cb5b1461011d578063a95c4d621461014e578063ec8ac4d814610156578063fc0c546a1461017c57610086565b80632c4e722e1461008b578063355274ea146100b25780633646ff9b146100c75780634042b66f146100dc575b600080fd5b34801561009757600080fd5b506100a0610191565b60408051918252519081900360200190f35b3480156100be57600080fd5b506100a0610197565b3480156100d357600080fd5b506100a061019d565b3480156100e857600080fd5b506100a06101a3565b3480156100fd57600080fd5b5061011b6004803603602081101561011457600080fd5b50356101a9565b005b34801561012957600080fd5b50610132610286565b604080516001600160a01b039092168252519081900360200190f35b61011b610295565b61011b6004803603602081101561016c57600080fd5b50356001600160a01b03166102a0565b34801561018857600080fd5b5061013261032e565b60035490565b60065490565b60055490565b60045490565b6002546001600160a01b031633146101f4576040805162461bcd60e51b815260206004820152600960248201526804f776e6572203078360bc1b604482015290519081900360640190fd5b6000811161023b576040805162461bcd60e51b815260206004820152600f60248201526e616d6f756e74206e6567617469766560881b604482015290519081900360640190fd5b6006805482019081905560045460408051928352602083019190915280517f0e6972ceebba9c855f94bf61b686def6eb9fd69224e6ab849e48a23c438bdfab9281900390910190a150565b6002546001600160a01b031690565b61029e336102a0565b565b346102ab828261033d565b60006102b682610460565b6004549091506102cc908363ffffffff61047d16565b6004556102d983826104ca565b604080518381526020810183905281516001600160a01b0386169233927f6faf93231a456e552dbc9961f58d9713ee4f2e69d15f1975b050ef0911053a7b929081900390910190a36103296104d4565b505050565b6001546001600160a01b031690565b6006546004541115610384576040805162461bcd60e51b815260206004820152600b60248201526a18d85c081c995858da195960aa1b604482015290519081900360640190fd5b6001600160a01b0382166103cd576040805162461bcd60e51b815260206004820152600b60248201526a061646472657373203078360ac1b604482015290519081900360640190fd5b80610410576040805162461bcd60e51b815260206004820152600e60248201526d057656920616d6f756e74203d20360941b604482015290519081900360640190fd5b60055434101561045c576040805162461bcd60e51b815260206004820152601260248201527177656920616d6f756e7420746f6f206c6f7760701b604482015290519081900360640190fd5b5050565b60006104776003548361051090919063ffffffff16565b92915050565b6000828201838110156104c3576040805162461bcd60e51b8152602060048201526009602482015268195c9c9bdc8818591960ba1b604482015290519081900360640190fd5b9392505050565b61045c8282610576565b6002546040516001600160a01b03909116903480156108fc02916000818181858888f1935050505015801561050d573d6000803e3d6000fd5b50565b60008261051f57506000610477565b8282028284828161052c57fe5b04146104c3576040805162461bcd60e51b815260206004820152601460248201527332b93937b91036bab63a34b83634b1b0ba34b7b760611b604482015290519081900360640190fd5b600154600254604080516323b872dd60e01b81526001600160a01b039283166004820152858316602482015260448101859052905191909216916323b872dd9160648083019260209291908290030181600087803b1580156105d757600080fd5b505af11580156105eb573d6000803e3d6000fd5b505050506040513d602081101561060157600080fd5b5050505056fea265627a7a72315820a1e3feb1c85f7524895c6ef5ff60df3ae27dc821474f49666f1d15f31efde17264736f6c63430005100032",
  "source": "pragma solidity >= 0.4.24;\r\n\r\nimport \"./ERC20.sol\";\r\nimport \"./ReentrancyGuard.sol\";\r\nimport \"./SafeMath.sol\";\r\n\r\ncontract FTCrowdsale is ReentrancyGuard {\r\n\r\n    using SafeMath for uint256;\r\n\r\n    event TokensPurchased(address indexed purchaser, address indexed beneficiary, uint value, uint amount);\r\n    event CapRaised(uint cap, uint weiRaised);\r\n\r\n    ERC20 private _token;\r\n\r\n    address payable private _owner;\r\n\r\n    uint private _rate;\r\n    uint private _weiRaised;\r\n\r\n    uint private _minSpent;\r\n    uint private _cap;\r\n\r\n    constructor (uint rate, uint minSpent, uint cap, ERC20 token) public {\r\n        require(rate > 0, \"rate is negative\");\r\n        require(address(token) != address(0), \"address 0x0\");\r\n        require(cap > 0, \"cap is negative\");\r\n\r\n        _cap = cap;\r\n        _owner = msg.sender;\r\n        _rate = rate;\r\n        _token = token;\r\n        _minSpent = minSpent;\r\n    }\r\n\r\n\r\n    function purchaseToken () external payable {\r\n        buyTokens(msg.sender);\r\n    }\r\n\r\n\r\n\r\n    function token() public view returns (ERC20) {\r\n        return _token;\r\n    }\r\n\r\n    function owner() public view returns (address) {\r\n        return _owner;\r\n    }\r\n\r\n    function rate() public view returns (uint) {\r\n        return _rate;\r\n    }\r\n\r\n    function weiRaised() public view returns (uint) {\r\n        return _weiRaised;\r\n    }\r\n\r\n    function cap() public view returns (uint) {\r\n        return _cap;\r\n    }\r\n\r\n    function minSpent() public view returns (uint) {\r\n        return _minSpent;\r\n    }\r\n\r\n\r\n\r\n    modifier onlyOwner() {\r\n        require(msg.sender == _owner, \"Owner 0x0\");\r\n        _;\r\n    }\r\n\r\n    function raiseCap (uint amount) public onlyOwner(){\r\n        require(amount > 0, \"amount negative\");\r\n        _cap += amount;\r\n        emit CapRaised(_cap, _weiRaised);\r\n    }\r\n\r\n\r\n    function buyTokens(address beneficiary) public payable {\r\n        uint weiAmount = msg.value;\r\n        _preValidatePurchase(beneficiary, weiAmount);\r\n        uint tokens = _getTokenAmount(weiAmount);\r\n        _weiRaised = _weiRaised.add(weiAmount);\r\n        _processPurchase(beneficiary, tokens);\r\n        emit TokensPurchased(msg.sender, beneficiary, weiAmount, tokens);\r\n        _forwardFunds();\r\n    }\r\n\r\n    function _preValidatePurchase(address beneficiary, uint weiAmount) internal {\r\n        require(_weiRaised <= _cap, \"cap reached\");\r\n        require(beneficiary != address(0), \"address 0x0\");\r\n        require(weiAmount != 0, \"Wei amount = 0\");\r\n        require(msg.value >= _minSpent, \"wei amount too low\");\r\n    }\r\n\r\n    function _deliverTokens(address beneficiary, uint tokenAmount) internal {\r\n        _token.transferFrom(_owner, beneficiary, tokenAmount);\r\n    }\r\n\r\n    function _processPurchase(address beneficiary, uint tokenAmount) internal {\r\n        _deliverTokens(beneficiary, tokenAmount);\r\n    }\r\n\r\n    function _getTokenAmount(uint weiAmount) internal view returns (uint) {\r\n        return weiAmount.mul(_rate);\r\n    }\r\n\r\n    function _forwardFunds() internal {\r\n        _owner.transfer(msg.value);\r\n    }\r\n}",
  "sourcePath": "C:\\Users\\Administrateur\\Desktop\\ERC20 - ERC223\\contracts\\FTCrowdsale.sol",
  "compiler": {
    "name": "solc",
    "version": "0.5.16+commit.9c3226ce.Emscripten.clang"
  },
  "schemaVersion": "3.1.0",
  "updatedAt": "2020-05-17T17:11:12.852Z",
  "devdoc": {
    "methods": {}
  },
  "userdoc": {
    "methods": {}
  }
}