{
  "contractName": "Marketplace",
  "abi": [
    {
      "inputs": [
        {
          "internalType": "contract ERC721",
          "name": "erc721",
          "type": "address"
        },
        {
          "internalType": "contract FongibleToken",
          "name": "token",
          "type": "address"
        },
        {
          "internalType": "uint256",
          "name": "nftPrice",
          "type": "uint256"
        }
      ],
      "payable": false,
      "stateMutability": "nonpayable",
      "type": "constructor"
    },
    {
      "anonymous": false,
      "inputs": [
        {
          "indexed": true,
          "internalType": "address",
          "name": "previousOwner",
          "type": "address"
        },
        {
          "indexed": true,
          "internalType": "address",
          "name": "newOwner",
          "type": "address"
        }
      ],
      "name": "OwnershipTransferred",
      "type": "event"
    },
    {
      "constant": true,
      "inputs": [],
      "name": "isOwner",
      "outputs": [
        {
          "internalType": "bool",
          "name": "",
          "type": "bool"
        }
      ],
      "payable": false,
      "stateMutability": "view",
      "type": "function"
    },
    {
      "constant": true,
      "inputs": [],
      "name": "owner",
      "outputs": [
        {
          "internalType": "address",
          "name": "",
          "type": "address"
        }
      ],
      "payable": false,
      "stateMutability": "view",
      "type": "function"
    },
    {
      "constant": false,
      "inputs": [],
      "name": "renounceOwnership",
      "outputs": [],
      "payable": false,
      "stateMutability": "nonpayable",
      "type": "function"
    },
    {
      "constant": false,
      "inputs": [
        {
          "internalType": "address",
          "name": "newOwner",
          "type": "address"
        }
      ],
      "name": "transferOwnership",
      "outputs": [],
      "payable": false,
      "stateMutability": "nonpayable",
      "type": "function"
    },
    {
      "constant": false,
      "inputs": [
        {
          "internalType": "address",
          "name": "to",
          "type": "address"
        }
      ],
      "name": "purchaseNFT",
      "outputs": [
        {
          "internalType": "bool",
          "name": "",
          "type": "bool"
        }
      ],
      "payable": false,
      "stateMutability": "nonpayable",
      "type": "function"
    }
  ],
  "bytecode": "0x608060405234801561001057600080fd5b506040516105d83803806105d88339818101604052606081101561003357600080fd5b5080516020820151604092830151600080546001600160a01b031916331780825594519394929391926001600160a01b0316917f8be0079c531659141344cd1fd0a4f28419497f9722a3daafe3b4186f6b6457e0908290a3600280546001600160a01b039485166001600160a01b031991821617909155600380549390941692169190911790915560045561050b806100cd6000396000f3fe608060405234801561001057600080fd5b50600436106100575760003560e01c80634a1b88cc1461005c578063715018a6146100965780638da5cb5b146100a05780638f32d59b146100c4578063f2fde38b146100cc575b600080fd5b6100826004803603602081101561007257600080fd5b50356001600160a01b03166100f2565b604080519115158252519081900360200190f35b61009e610334565b005b6100a86103c3565b604080516001600160a01b039092168252519081900360200190f35b6100826103d2565b61009e600480360360208110156100e257600080fd5b50356001600160a01b03166103e3565b60048054600354604080516370a0823160e01b81523394810194909452516000936001600160a01b03909216916370a08231916024808301926020929190829003018186803b15801561014457600080fd5b505afa158015610158573d6000803e3d6000fd5b505050506040513d602081101561016e57600080fd5b505110156101bc576040805162461bcd60e51b81526020600482015260166024820152751b9bdd08195b9bdd59da081c19595b1cc81bdddb995960521b604482015290519081900360640190fd5b60035460408051638da5cb5b60e01b815290516001600160a01b039092169163a9059cbb918391638da5cb5b91600480820192602092909190829003018186803b15801561020957600080fd5b505afa15801561021d573d6000803e3d6000fd5b505050506040513d602081101561023357600080fd5b505160048054604080516001600160e01b031960e087901b1681526001600160a01b039094169284019290925260248301525160448083019260209291908290030181600087803b15801561028757600080fd5b505af115801561029b573d6000803e3d6000fd5b505050506040513d60208110156102b157600080fd5b50506001805481019081905560025460408051630f38ca0d60e31b81526001600160a01b0386811660048301526024820194909452905192909116916379c650689160448082019260009290919082900301818387803b15801561031457600080fd5b505af1158015610328573d6000803e3d6000fd5b50600195945050505050565b61033c6103d2565b610379576040805162461bcd60e51b81526020600482015260096024820152683737ba1037bbb732b960b91b604482015290519081900360640190fd5b600080546040516001600160a01b03909116907f8be0079c531659141344cd1fd0a4f28419497f9722a3daafe3b4186f6b6457e0908390a3600080546001600160a01b0319169055565b6000546001600160a01b031690565b6000546001600160a01b0316331490565b6103eb6103d2565b610428576040805162461bcd60e51b81526020600482015260096024820152683737ba1037bbb732b960b91b604482015290519081900360640190fd5b61043181610434565b50565b6001600160a01b03811661047b576040805162461bcd60e51b81526020600482015260096024820152683737ba1037bbb732b960b91b604482015290519081900360640190fd5b600080546040516001600160a01b03808516939216917f8be0079c531659141344cd1fd0a4f28419497f9722a3daafe3b4186f6b6457e091a3600080546001600160a01b0319166001600160a01b039290921691909117905556fea265627a7a723158207aa961a771ce27594a1f9e9d3648f8081a560e269a9fab08f2f9495654460c4864736f6c63430005100032",
  "source": "pragma solidity >=0.4.24;\r\n\r\nimport \"./Ownable.sol\";\r\nimport \"./SafeMath.sol\";\r\nimport \"./ERC721.sol\";\r\nimport \"./FongibleToken.sol\";\r\n\r\ncontract Marketplace is Ownable{\r\n\r\n    uint private _currentId;\r\n\r\n    ERC721 private _erc721;\r\n    FongibleToken private _token;\r\n\r\n    uint _nftPrice;\r\n\r\n    constructor(ERC721 erc721, FongibleToken token, uint nftPrice) public {\r\n        _erc721 = erc721;\r\n        _token = token;\r\n        _nftPrice = nftPrice;\r\n    }\r\n\r\n    function purchaseNFT(address to) public returns (bool) {\r\n        require(_token.balanceOf(msg.sender) >= _nftPrice, \"not enough peels owned\");\r\n\r\n        _token.transfer(_token.owner(), _nftPrice);\r\n\r\n        _currentId++;\r\n\r\n        _erc721.mintToken(to, _currentId);\r\n\r\n        return true;\r\n    }\r\n\r\n}\r\n\r\n",
  "sourcePath": "C:\\Users\\Administrateur\\Desktop\\ERC20 - ERC223\\contracts\\Marketplace.sol",
  "compiler": {
    "name": "solc",
    "version": "0.5.16+commit.9c3226ce.Emscripten.clang"
  },
  "schemaVersion": "3.1.0",
  "updatedAt": "2020-05-17T21:40:00.188Z",
  "networkType": "ethereum",
  "devdoc": {
    "methods": {}
  },
  "userdoc": {
    "methods": {}
  }
}